{
	"factory.sol": {
		"Factory": {
			"abi": [
				{
					"inputs": [
						{
							"internalType": "uint256",
							"name": "number",
							"type": "uint256"
						}
					],
					"name": "createProduct",
					"outputs": [
						{
							"internalType": "address",
							"name": "",
							"type": "address"
						}
					],
					"stateMutability": "nonpayable",
					"type": "function"
				}
			],
			"devdoc": {
				"kind": "dev",
				"methods": {},
				"version": 1
			},
			"evm": {
				"assembly": "    /* \"factory.sol\":166:627  contract Factory {... */\n  mstore(0x40, 0x80)\n  callvalue\n  dup1\n  iszero\n  tag_1\n  jumpi\n  0x00\n  dup1\n  revert\ntag_1:\n  pop\n  dataSize(sub_0)\n  dup1\n  dataOffset(sub_0)\n  0x00\n  codecopy\n  0x00\n  return\nstop\n\nsub_0: assembly {\n        /* \"factory.sol\":166:627  contract Factory {... */\n      mstore(0x40, 0x80)\n      callvalue\n      dup1\n      iszero\n      tag_1\n      jumpi\n      0x00\n      dup1\n      revert\n    tag_1:\n      pop\n      jumpi(tag_2, lt(calldatasize, 0x04))\n      shr(0xe0, calldataload(0x00))\n      dup1\n      0x2a422e92\n      eq\n      tag_3\n      jumpi\n    tag_2:\n      0x00\n      dup1\n      revert\n        /* \"factory.sol\":372:625  function createProduct(uint number) public returns(address) {... */\n    tag_3:\n      tag_4\n      0x04\n      dup1\n      calldatasize\n      sub\n      dup2\n      add\n      swap1\n      tag_5\n      swap2\n      swap1\n      tag_6\n      jump\t// in\n    tag_5:\n      tag_7\n      jump\t// in\n    tag_4:\n      mload(0x40)\n      tag_8\n      swap2\n      swap1\n      tag_9\n      jump\t// in\n    tag_8:\n      mload(0x40)\n      dup1\n      swap2\n      sub\n      swap1\n      return\n    tag_7:\n        /* \"factory.sol\":423:430  address */\n      0x00\n        /* \"factory.sol\":442:457  Product created */\n      dup1\n        /* \"factory.sol\":472:478  number */\n      dup3\n        /* \"factory.sol\":460:479  new Product(number) */\n      mload(0x40)\n      tag_11\n      swap1\n      tag_12\n      jump\t// in\n    tag_11:\n      tag_13\n      swap2\n      swap1\n      tag_14\n      jump\t// in\n    tag_13:\n      mload(0x40)\n      dup1\n      swap2\n      sub\n      swap1\n      0x00\n      create\n      dup1\n      iszero\n      dup1\n      iszero\n      tag_15\n      jumpi\n      returndatasize\n      0x00\n      dup1\n      returndatacopy\n      revert(0x00, returndatasize)\n    tag_15:\n      pop\n        /* \"factory.sol\":442:479  Product created = new Product(number) */\n      swap1\n      pop\n        /* \"factory.sol\":524:531  created */\n      dup1\n        /* \"factory.sol\":490:505  numberToProduct */\n      0x00\n        /* \"factory.sol\":490:513  numberToProduct[number] */\n      dup1\n        /* \"factory.sol\":506:512  number */\n      dup6\n        /* \"factory.sol\":490:513  numberToProduct[number] */\n      dup2\n      mstore\n      0x20\n      add\n      swap1\n      dup2\n      mstore\n      0x20\n      add\n      0x00\n      keccak256\n      0x00\n        /* \"factory.sol\":490:532  numberToProduct[number] = address(created) */\n      0x0100\n      exp\n      dup2\n      sload\n      dup2\n      0xffffffffffffffffffffffffffffffffffffffff\n      mul\n      not\n      and\n      swap1\n      dup4\n      0xffffffffffffffffffffffffffffffffffffffff\n      and\n      mul\n      or\n      swap1\n      sstore\n      pop\n        /* \"factory.sol\":578:584  number */\n      dup3\n        /* \"factory.sol\":542:557  productToNumber */\n      0x01\n        /* \"factory.sol\":542:575  productToNumber[address(created)] */\n      0x00\n        /* \"factory.sol\":566:573  created */\n      dup4\n        /* \"factory.sol\":542:575  productToNumber[address(created)] */\n      0xffffffffffffffffffffffffffffffffffffffff\n      and\n      0xffffffffffffffffffffffffffffffffffffffff\n      and\n      dup2\n      mstore\n      0x20\n      add\n      swap1\n      dup2\n      mstore\n      0x20\n      add\n      0x00\n      keccak256\n        /* \"factory.sol\":542:584  productToNumber[address(created)] = number */\n      dup2\n      swap1\n      sstore\n      pop\n        /* \"factory.sol\":610:617  created */\n      dup1\n        /* \"factory.sol\":595:618  return address(created) */\n      swap2\n      pop\n      pop\n        /* \"factory.sol\":372:625  function createProduct(uint number) public returns(address) {... */\n      swap2\n      swap1\n      pop\n      jump\t// out\n    tag_12:\n      dataSize(sub_0)\n      dup1\n      dataOffset(sub_0)\n      dup4\n      codecopy\n      add\n      swap1\n      jump\t// out\n        /* \"#utility.yul\":88:205   */\n    tag_17:\n        /* \"#utility.yul\":197:198   */\n      0x00\n        /* \"#utility.yul\":194:195   */\n      dup1\n        /* \"#utility.yul\":187:199   */\n      revert\n        /* \"#utility.yul\":334:411   */\n    tag_19:\n        /* \"#utility.yul\":371:378   */\n      0x00\n        /* \"#utility.yul\":400:405   */\n      dup2\n        /* \"#utility.yul\":389:405   */\n      swap1\n      pop\n        /* \"#utility.yul\":334:411   */\n      swap2\n      swap1\n      pop\n      jump\t// out\n        /* \"#utility.yul\":417:539   */\n    tag_20:\n        /* \"#utility.yul\":490:514   */\n      tag_32\n        /* \"#utility.yul\":508:513   */\n      dup2\n        /* \"#utility.yul\":490:514   */\n      tag_19\n      jump\t// in\n    tag_32:\n        /* \"#utility.yul\":483:488   */\n      dup2\n        /* \"#utility.yul\":480:515   */\n      eq\n        /* \"#utility.yul\":470:533   */\n      tag_33\n      jumpi\n        /* \"#utility.yul\":529:530   */\n      0x00\n        /* \"#utility.yul\":526:527   */\n      dup1\n        /* \"#utility.yul\":519:531   */\n      revert\n        /* \"#utility.yul\":470:533   */\n    tag_33:\n        /* \"#utility.yul\":417:539   */\n      pop\n      jump\t// out\n        /* \"#utility.yul\":545:684   */\n    tag_21:\n        /* \"#utility.yul\":591:596   */\n      0x00\n        /* \"#utility.yul\":629:635   */\n      dup2\n        /* \"#utility.yul\":616:636   */\n      calldataload\n        /* \"#utility.yul\":607:636   */\n      swap1\n      pop\n        /* \"#utility.yul\":645:678   */\n      tag_35\n        /* \"#utility.yul\":672:677   */\n      dup2\n        /* \"#utility.yul\":645:678   */\n      tag_20\n      jump\t// in\n    tag_35:\n        /* \"#utility.yul\":545:684   */\n      swap3\n      swap2\n      pop\n      pop\n      jump\t// out\n        /* \"#utility.yul\":690:1019   */\n    tag_6:\n        /* \"#utility.yul\":749:755   */\n      0x00\n        /* \"#utility.yul\":798:800   */\n      0x20\n        /* \"#utility.yul\":786:795   */\n      dup3\n        /* \"#utility.yul\":777:784   */\n      dup5\n        /* \"#utility.yul\":773:796   */\n      sub\n        /* \"#utility.yul\":769:801   */\n      slt\n        /* \"#utility.yul\":766:885   */\n      iszero\n      tag_37\n      jumpi\n        /* \"#utility.yul\":804:883   */\n      tag_38\n      tag_17\n      jump\t// in\n    tag_38:\n        /* \"#utility.yul\":766:885   */\n    tag_37:\n        /* \"#utility.yul\":924:925   */\n      0x00\n        /* \"#utility.yul\":949:1002   */\n      tag_39\n        /* \"#utility.yul\":994:1001   */\n      dup5\n        /* \"#utility.yul\":985:991   */\n      dup3\n        /* \"#utility.yul\":974:983   */\n      dup6\n        /* \"#utility.yul\":970:992   */\n      add\n        /* \"#utility.yul\":949:1002   */\n      tag_21\n      jump\t// in\n    tag_39:\n        /* \"#utility.yul\":939:1002   */\n      swap2\n      pop\n        /* \"#utility.yul\":895:1012   */\n      pop\n        /* \"#utility.yul\":690:1019   */\n      swap3\n      swap2\n      pop\n      pop\n      jump\t// out\n        /* \"#utility.yul\":1025:1151   */\n    tag_22:\n        /* \"#utility.yul\":1062:1069   */\n      0x00\n        /* \"#utility.yul\":1102:1144   */\n      0xffffffffffffffffffffffffffffffffffffffff\n        /* \"#utility.yul\":1095:1100   */\n      dup3\n        /* \"#utility.yul\":1091:1145   */\n      and\n        /* \"#utility.yul\":1080:1145   */\n      swap1\n      pop\n        /* \"#utility.yul\":1025:1151   */\n      swap2\n      swap1\n      pop\n      jump\t// out\n        /* \"#utility.yul\":1157:1253   */\n    tag_23:\n        /* \"#utility.yul\":1194:1201   */\n      0x00\n        /* \"#utility.yul\":1223:1247   */\n      tag_42\n        /* \"#utility.yul\":1241:1246   */\n      dup3\n        /* \"#utility.yul\":1223:1247   */\n      tag_22\n      jump\t// in\n    tag_42:\n        /* \"#utility.yul\":1212:1247   */\n      swap1\n      pop\n        /* \"#utility.yul\":1157:1253   */\n      swap2\n      swap1\n      pop\n      jump\t// out\n        /* \"#utility.yul\":1259:1377   */\n    tag_24:\n        /* \"#utility.yul\":1346:1370   */\n      tag_44\n        /* \"#utility.yul\":1364:1369   */\n      dup2\n        /* \"#utility.yul\":1346:1370   */\n      tag_23\n      jump\t// in\n    tag_44:\n        /* \"#utility.yul\":1341:1344   */\n      dup3\n        /* \"#utility.yul\":1334:1371   */\n      mstore\n        /* \"#utility.yul\":1259:1377   */\n      pop\n      pop\n      jump\t// out\n        /* \"#utility.yul\":1383:1605   */\n    tag_9:\n        /* \"#utility.yul\":1476:1480   */\n      0x00\n        /* \"#utility.yul\":1514:1516   */\n      0x20\n        /* \"#utility.yul\":1503:1512   */\n      dup3\n        /* \"#utility.yul\":1499:1517   */\n      add\n        /* \"#utility.yul\":1491:1517   */\n      swap1\n      pop\n        /* \"#utility.yul\":1527:1598   */\n      tag_46\n        /* \"#utility.yul\":1595:1596   */\n      0x00\n        /* \"#utility.yul\":1584:1593   */\n      dup4\n        /* \"#utility.yul\":1580:1597   */\n      add\n        /* \"#utility.yul\":1571:1577   */\n      dup5\n        /* \"#utility.yul\":1527:1598   */\n      tag_24\n      jump\t// in\n    tag_46:\n        /* \"#utility.yul\":1383:1605   */\n      swap3\n      swap2\n      pop\n      pop\n      jump\t// out\n        /* \"#utility.yul\":1611:1729   */\n    tag_25:\n        /* \"#utility.yul\":1698:1722   */\n      tag_48\n        /* \"#utility.yul\":1716:1721   */\n      dup2\n        /* \"#utility.yul\":1698:1722   */\n      tag_19\n      jump\t// in\n    tag_48:\n        /* \"#utility.yul\":1693:1696   */\n      dup3\n        /* \"#utility.yul\":1686:1723   */\n      mstore\n        /* \"#utility.yul\":1611:1729   */\n      pop\n      pop\n      jump\t// out\n        /* \"#utility.yul\":1735:1957   */\n    tag_14:\n        /* \"#utility.yul\":1828:1832   */\n      0x00\n        /* \"#utility.yul\":1866:1868   */\n      0x20\n        /* \"#utility.yul\":1855:1864   */\n      dup3\n        /* \"#utility.yul\":1851:1869   */\n      add\n        /* \"#utility.yul\":1843:1869   */\n      swap1\n      pop\n        /* \"#utility.yul\":1879:1950   */\n      tag_50\n        /* \"#utility.yul\":1947:1948   */\n      0x00\n        /* \"#utility.yul\":1936:1945   */\n      dup4\n        /* \"#utility.yul\":1932:1949   */\n      add\n        /* \"#utility.yul\":1923:1929   */\n      dup5\n        /* \"#utility.yul\":1879:1950   */\n      tag_25\n      jump\t// in\n    tag_50:\n        /* \"#utility.yul\":1735:1957   */\n      swap3\n      swap2\n      pop\n      pop\n      jump\t// out\n    stop\n\n    sub_0: assembly {\n            /* \"factory.sol\":57:164  contract Product {... */\n          mstore(0x40, 0x80)\n            /* \"factory.sol\":104:162  constructor(uint _number){... */\n          callvalue\n          dup1\n          iszero\n          tag_1\n          jumpi\n          0x00\n          dup1\n          revert\n        tag_1:\n          pop\n          mload(0x40)\n          sub(codesize, bytecodeSize)\n          dup1\n          bytecodeSize\n          dup4\n          codecopy\n          dup2\n          dup2\n          add\n          0x40\n          mstore\n          dup2\n          add\n          swap1\n          tag_2\n          swap2\n          swap1\n          tag_3\n          jump\t// in\n        tag_2:\n            /* \"factory.sol\":148:155  _number */\n          dup1\n            /* \"factory.sol\":139:145  number */\n          0x00\n            /* \"factory.sol\":139:155  number = _number */\n          dup2\n          swap1\n          sstore\n          pop\n            /* \"factory.sol\":104:162  constructor(uint _number){... */\n          pop\n            /* \"factory.sol\":57:164  contract Product {... */\n          jump(tag_6)\n            /* \"#utility.yul\":88:205   */\n        tag_8:\n            /* \"#utility.yul\":197:198   */\n          0x00\n            /* \"#utility.yul\":194:195   */\n          dup1\n            /* \"#utility.yul\":187:199   */\n          revert\n            /* \"#utility.yul\":334:411   */\n        tag_10:\n            /* \"#utility.yul\":371:378   */\n          0x00\n            /* \"#utility.yul\":400:405   */\n          dup2\n            /* \"#utility.yul\":389:405   */\n          swap1\n          pop\n            /* \"#utility.yul\":334:411   */\n          swap2\n          swap1\n          pop\n          jump\t// out\n            /* \"#utility.yul\":417:539   */\n        tag_11:\n            /* \"#utility.yul\":490:514   */\n          tag_19\n            /* \"#utility.yul\":508:513   */\n          dup2\n            /* \"#utility.yul\":490:514   */\n          tag_10\n          jump\t// in\n        tag_19:\n            /* \"#utility.yul\":483:488   */\n          dup2\n            /* \"#utility.yul\":480:515   */\n          eq\n            /* \"#utility.yul\":470:533   */\n          tag_20\n          jumpi\n            /* \"#utility.yul\":529:530   */\n          0x00\n            /* \"#utility.yul\":526:527   */\n          dup1\n            /* \"#utility.yul\":519:531   */\n          revert\n            /* \"#utility.yul\":470:533   */\n        tag_20:\n            /* \"#utility.yul\":417:539   */\n          pop\n          jump\t// out\n            /* \"#utility.yul\":545:688   */\n        tag_12:\n            /* \"#utility.yul\":602:607   */\n          0x00\n            /* \"#utility.yul\":633:639   */\n          dup2\n            /* \"#utility.yul\":627:640   */\n          mload\n            /* \"#utility.yul\":618:640   */\n          swap1\n          pop\n            /* \"#utility.yul\":649:682   */\n          tag_22\n            /* \"#utility.yul\":676:681   */\n          dup2\n            /* \"#utility.yul\":649:682   */\n          tag_11\n          jump\t// in\n        tag_22:\n            /* \"#utility.yul\":545:688   */\n          swap3\n          swap2\n          pop\n          pop\n          jump\t// out\n            /* \"#utility.yul\":694:1045   */\n        tag_3:\n            /* \"#utility.yul\":764:770   */\n          0x00\n            /* \"#utility.yul\":813:815   */\n          0x20\n            /* \"#utility.yul\":801:810   */\n          dup3\n            /* \"#utility.yul\":792:799   */\n          dup5\n            /* \"#utility.yul\":788:811   */\n          sub\n            /* \"#utility.yul\":784:816   */\n          slt\n            /* \"#utility.yul\":781:900   */\n          iszero\n          tag_24\n          jumpi\n            /* \"#utility.yul\":819:898   */\n          tag_25\n          tag_8\n          jump\t// in\n        tag_25:\n            /* \"#utility.yul\":781:900   */\n        tag_24:\n            /* \"#utility.yul\":939:940   */\n          0x00\n            /* \"#utility.yul\":964:1028   */\n          tag_26\n            /* \"#utility.yul\":1020:1027   */\n          dup5\n            /* \"#utility.yul\":1011:1017   */\n          dup3\n            /* \"#utility.yul\":1000:1009   */\n          dup6\n            /* \"#utility.yul\":996:1018   */\n          add\n            /* \"#utility.yul\":964:1028   */\n          tag_12\n          jump\t// in\n        tag_26:\n            /* \"#utility.yul\":954:1028   */\n          swap2\n          pop\n            /* \"#utility.yul\":910:1038   */\n          pop\n            /* \"#utility.yul\":694:1045   */\n          swap3\n          swap2\n          pop\n          pop\n          jump\t// out\n            /* \"factory.sol\":57:164  contract Product {... */\n        tag_6:\n          dataSize(sub_0)\n          dup1\n          dataOffset(sub_0)\n          0x00\n          codecopy\n          0x00\n          return\n        stop\n\n        sub_0: assembly {\n                /* \"factory.sol\":57:164  contract Product {... */\n              mstore(0x40, 0x80)\n              callvalue\n              dup1\n              iszero\n              tag_1\n              jumpi\n              0x00\n              dup1\n              revert\n            tag_1:\n              pop\n              jumpi(tag_2, lt(calldatasize, 0x04))\n              shr(0xe0, calldataload(0x00))\n              dup1\n              0x8381f58a\n              eq\n              tag_3\n              jumpi\n            tag_2:\n              0x00\n              dup1\n              revert\n                /* \"factory.sol\":80:98  uint public number */\n            tag_3:\n              tag_4\n              tag_5\n              jump\t// in\n            tag_4:\n              mload(0x40)\n              tag_6\n              swap2\n              swap1\n              tag_7\n              jump\t// in\n            tag_6:\n              mload(0x40)\n              dup1\n              swap2\n              sub\n              swap1\n              return\n            tag_5:\n              sload(0x00)\n              dup2\n              jump\t// out\n                /* \"#utility.yul\":7:84   */\n            tag_8:\n                /* \"#utility.yul\":44:51   */\n              0x00\n                /* \"#utility.yul\":73:78   */\n              dup2\n                /* \"#utility.yul\":62:78   */\n              swap1\n              pop\n                /* \"#utility.yul\":7:84   */\n              swap2\n              swap1\n              pop\n              jump\t// out\n                /* \"#utility.yul\":90:208   */\n            tag_9:\n                /* \"#utility.yul\":177:201   */\n              tag_13\n                /* \"#utility.yul\":195:200   */\n              dup2\n                /* \"#utility.yul\":177:201   */\n              tag_8\n              jump\t// in\n            tag_13:\n                /* \"#utility.yul\":172:175   */\n              dup3\n                /* \"#utility.yul\":165:202   */\n              mstore\n                /* \"#utility.yul\":90:208   */\n              pop\n              pop\n              jump\t// out\n                /* \"#utility.yul\":214:436   */\n            tag_7:\n                /* \"#utility.yul\":307:311   */\n              0x00\n                /* \"#utility.yul\":345:347   */\n              0x20\n                /* \"#utility.yul\":334:343   */\n              dup3\n                /* \"#utility.yul\":330:348   */\n              add\n                /* \"#utility.yul\":322:348   */\n              swap1\n              pop\n                /* \"#utility.yul\":358:429   */\n              tag_15\n                /* \"#utility.yul\":426:427   */\n              0x00\n                /* \"#utility.yul\":415:424   */\n              dup4\n                /* \"#utility.yul\":411:428   */\n              add\n                /* \"#utility.yul\":402:408   */\n              dup5\n                /* \"#utility.yul\":358:429   */\n              tag_9\n              jump\t// in\n            tag_15:\n                /* \"#utility.yul\":214:436   */\n              swap3\n              swap2\n              pop\n              pop\n              jump\t// out\n\n            auxdata: 0xa2646970667358221220e3b2cb29dc7e66b7705ef84a7ad543cc43a0c82714513f9baf73f3676b80814e64736f6c63430008130033\n        }\n    }\n\n    auxdata: 0xa26469706673582212209e92b85dfe9b7c1a3dd182d07f6bc60cb08b4aa74633d65ea177b2a3929d12d364736f6c63430008130033\n}\n",
				"bytecode": {
					"linkReferences": {},
					"object": "608060405234801561001057600080fd5b506103d0806100206000396000f3fe608060405234801561001057600080fd5b506004361061002b5760003560e01c80632a422e9214610030575b600080fd5b61004a6004803603810190610045919061017f565b610060565b60405161005791906101ed565b60405180910390f35b6000808260405161007090610137565b61007a9190610217565b604051809103906000f080158015610096573d6000803e3d6000fd5b5090508060008085815260200190815260200160002060006101000a81548173ffffffffffffffffffffffffffffffffffffffff021916908373ffffffffffffffffffffffffffffffffffffffff16021790555082600160008373ffffffffffffffffffffffffffffffffffffffff1673ffffffffffffffffffffffffffffffffffffffff1681526020019081526020016000208190555080915050919050565b6101688061023383390190565b600080fd5b6000819050919050565b61015c81610149565b811461016757600080fd5b50565b60008135905061017981610153565b92915050565b60006020828403121561019557610194610144565b5b60006101a38482850161016a565b91505092915050565b600073ffffffffffffffffffffffffffffffffffffffff82169050919050565b60006101d7826101ac565b9050919050565b6101e7816101cc565b82525050565b600060208201905061020260008301846101de565b92915050565b61021181610149565b82525050565b600060208201905061022c6000830184610208565b9291505056fe608060405234801561001057600080fd5b506040516101683803806101688339818101604052810190610032919061007a565b80600081905550506100a7565b600080fd5b6000819050919050565b61005781610044565b811461006257600080fd5b50565b6000815190506100748161004e565b92915050565b6000602082840312156100905761008f61003f565b5b600061009e84828501610065565b91505092915050565b60b3806100b56000396000f3fe6080604052348015600f57600080fd5b506004361060285760003560e01c80638381f58a14602d575b600080fd5b60336047565b604051603e91906064565b60405180910390f35b60005481565b6000819050919050565b605e81604d565b82525050565b6000602082019050607760008301846057565b9291505056fea2646970667358221220e3b2cb29dc7e66b7705ef84a7ad543cc43a0c82714513f9baf73f3676b80814e64736f6c63430008130033a26469706673582212209e92b85dfe9b7c1a3dd182d07f6bc60cb08b4aa74633d65ea177b2a3929d12d364736f6c63430008130033",
					"opcodes": "PUSH1 0x80 PUSH1 0x40 MSTORE CALLVALUE DUP1 ISZERO PUSH2 0x10 JUMPI PUSH1 0x0 DUP1 REVERT JUMPDEST POP PUSH2 0x3D0 DUP1 PUSH2 0x20 PUSH1 0x0 CODECOPY PUSH1 0x0 RETURN INVALID PUSH1 0x80 PUSH1 0x40 MSTORE CALLVALUE DUP1 ISZERO PUSH2 0x10 JUMPI PUSH1 0x0 DUP1 REVERT JUMPDEST POP PUSH1 0x4 CALLDATASIZE LT PUSH2 0x2B JUMPI PUSH1 0x0 CALLDATALOAD PUSH1 0xE0 SHR DUP1 PUSH4 0x2A422E92 EQ PUSH2 0x30 JUMPI JUMPDEST PUSH1 0x0 DUP1 REVERT JUMPDEST PUSH2 0x4A PUSH1 0x4 DUP1 CALLDATASIZE SUB DUP2 ADD SWAP1 PUSH2 0x45 SWAP2 SWAP1 PUSH2 0x17F JUMP JUMPDEST PUSH2 0x60 JUMP JUMPDEST PUSH1 0x40 MLOAD PUSH2 0x57 SWAP2 SWAP1 PUSH2 0x1ED JUMP JUMPDEST PUSH1 0x40 MLOAD DUP1 SWAP2 SUB SWAP1 RETURN JUMPDEST PUSH1 0x0 DUP1 DUP3 PUSH1 0x40 MLOAD PUSH2 0x70 SWAP1 PUSH2 0x137 JUMP JUMPDEST PUSH2 0x7A SWAP2 SWAP1 PUSH2 0x217 JUMP JUMPDEST PUSH1 0x40 MLOAD DUP1 SWAP2 SUB SWAP1 PUSH1 0x0 CREATE DUP1 ISZERO DUP1 ISZERO PUSH2 0x96 JUMPI RETURNDATASIZE PUSH1 0x0 DUP1 RETURNDATACOPY RETURNDATASIZE PUSH1 0x0 REVERT JUMPDEST POP SWAP1 POP DUP1 PUSH1 0x0 DUP1 DUP6 DUP2 MSTORE PUSH1 0x20 ADD SWAP1 DUP2 MSTORE PUSH1 0x20 ADD PUSH1 0x0 KECCAK256 PUSH1 0x0 PUSH2 0x100 EXP DUP2 SLOAD DUP2 PUSH20 0xFFFFFFFFFFFFFFFFFFFFFFFFFFFFFFFFFFFFFFFF MUL NOT AND SWAP1 DUP4 PUSH20 0xFFFFFFFFFFFFFFFFFFFFFFFFFFFFFFFFFFFFFFFF AND MUL OR SWAP1 SSTORE POP DUP3 PUSH1 0x1 PUSH1 0x0 DUP4 PUSH20 0xFFFFFFFFFFFFFFFFFFFFFFFFFFFFFFFFFFFFFFFF AND PUSH20 0xFFFFFFFFFFFFFFFFFFFFFFFFFFFFFFFFFFFFFFFF AND DUP2 MSTORE PUSH1 0x20 ADD SWAP1 DUP2 MSTORE PUSH1 0x20 ADD PUSH1 0x0 KECCAK256 DUP2 SWAP1 SSTORE POP DUP1 SWAP2 POP POP SWAP2 SWAP1 POP JUMP JUMPDEST PUSH2 0x168 DUP1 PUSH2 0x233 DUP4 CODECOPY ADD SWAP1 JUMP JUMPDEST PUSH1 0x0 DUP1 REVERT JUMPDEST PUSH1 0x0 DUP2 SWAP1 POP SWAP2 SWAP1 POP JUMP JUMPDEST PUSH2 0x15C DUP2 PUSH2 0x149 JUMP JUMPDEST DUP2 EQ PUSH2 0x167 JUMPI PUSH1 0x0 DUP1 REVERT JUMPDEST POP JUMP JUMPDEST PUSH1 0x0 DUP2 CALLDATALOAD SWAP1 POP PUSH2 0x179 DUP2 PUSH2 0x153 JUMP JUMPDEST SWAP3 SWAP2 POP POP JUMP JUMPDEST PUSH1 0x0 PUSH1 0x20 DUP3 DUP5 SUB SLT ISZERO PUSH2 0x195 JUMPI PUSH2 0x194 PUSH2 0x144 JUMP JUMPDEST JUMPDEST PUSH1 0x0 PUSH2 0x1A3 DUP5 DUP3 DUP6 ADD PUSH2 0x16A JUMP JUMPDEST SWAP2 POP POP SWAP3 SWAP2 POP POP JUMP JUMPDEST PUSH1 0x0 PUSH20 0xFFFFFFFFFFFFFFFFFFFFFFFFFFFFFFFFFFFFFFFF DUP3 AND SWAP1 POP SWAP2 SWAP1 POP JUMP JUMPDEST PUSH1 0x0 PUSH2 0x1D7 DUP3 PUSH2 0x1AC JUMP JUMPDEST SWAP1 POP SWAP2 SWAP1 POP JUMP JUMPDEST PUSH2 0x1E7 DUP2 PUSH2 0x1CC JUMP JUMPDEST DUP3 MSTORE POP POP JUMP JUMPDEST PUSH1 0x0 PUSH1 0x20 DUP3 ADD SWAP1 POP PUSH2 0x202 PUSH1 0x0 DUP4 ADD DUP5 PUSH2 0x1DE JUMP JUMPDEST SWAP3 SWAP2 POP POP JUMP JUMPDEST PUSH2 0x211 DUP2 PUSH2 0x149 JUMP JUMPDEST DUP3 MSTORE POP POP JUMP JUMPDEST PUSH1 0x0 PUSH1 0x20 DUP3 ADD SWAP1 POP PUSH2 0x22C PUSH1 0x0 DUP4 ADD DUP5 PUSH2 0x208 JUMP JUMPDEST SWAP3 SWAP2 POP POP JUMP INVALID PUSH1 0x80 PUSH1 0x40 MSTORE CALLVALUE DUP1 ISZERO PUSH2 0x10 JUMPI PUSH1 0x0 DUP1 REVERT JUMPDEST POP PUSH1 0x40 MLOAD PUSH2 0x168 CODESIZE SUB DUP1 PUSH2 0x168 DUP4 CODECOPY DUP2 DUP2 ADD PUSH1 0x40 MSTORE DUP2 ADD SWAP1 PUSH2 0x32 SWAP2 SWAP1 PUSH2 0x7A JUMP JUMPDEST DUP1 PUSH1 0x0 DUP2 SWAP1 SSTORE POP POP PUSH2 0xA7 JUMP JUMPDEST PUSH1 0x0 DUP1 REVERT JUMPDEST PUSH1 0x0 DUP2 SWAP1 POP SWAP2 SWAP1 POP JUMP JUMPDEST PUSH2 0x57 DUP2 PUSH2 0x44 JUMP JUMPDEST DUP2 EQ PUSH2 0x62 JUMPI PUSH1 0x0 DUP1 REVERT JUMPDEST POP JUMP JUMPDEST PUSH1 0x0 DUP2 MLOAD SWAP1 POP PUSH2 0x74 DUP2 PUSH2 0x4E JUMP JUMPDEST SWAP3 SWAP2 POP POP JUMP JUMPDEST PUSH1 0x0 PUSH1 0x20 DUP3 DUP5 SUB SLT ISZERO PUSH2 0x90 JUMPI PUSH2 0x8F PUSH2 0x3F JUMP JUMPDEST JUMPDEST PUSH1 0x0 PUSH2 0x9E DUP5 DUP3 DUP6 ADD PUSH2 0x65 JUMP JUMPDEST SWAP2 POP POP SWAP3 SWAP2 POP POP JUMP JUMPDEST PUSH1 0xB3 DUP1 PUSH2 0xB5 PUSH1 0x0 CODECOPY PUSH1 0x0 RETURN INVALID PUSH1 0x80 PUSH1 0x40 MSTORE CALLVALUE DUP1 ISZERO PUSH1 0xF JUMPI PUSH1 0x0 DUP1 REVERT JUMPDEST POP PUSH1 0x4 CALLDATASIZE LT PUSH1 0x28 JUMPI PUSH1 0x0 CALLDATALOAD PUSH1 0xE0 SHR DUP1 PUSH4 0x8381F58A EQ PUSH1 0x2D JUMPI JUMPDEST PUSH1 0x0 DUP1 REVERT JUMPDEST PUSH1 0x33 PUSH1 0x47 JUMP JUMPDEST PUSH1 0x40 MLOAD PUSH1 0x3E SWAP2 SWAP1 PUSH1 0x64 JUMP JUMPDEST PUSH1 0x40 MLOAD DUP1 SWAP2 SUB SWAP1 RETURN JUMPDEST PUSH1 0x0 SLOAD DUP2 JUMP JUMPDEST PUSH1 0x0 DUP2 SWAP1 POP SWAP2 SWAP1 POP JUMP JUMPDEST PUSH1 0x5E DUP2 PUSH1 0x4D JUMP JUMPDEST DUP3 MSTORE POP POP JUMP JUMPDEST PUSH1 0x0 PUSH1 0x20 DUP3 ADD SWAP1 POP PUSH1 0x77 PUSH1 0x0 DUP4 ADD DUP5 PUSH1 0x57 JUMP JUMPDEST SWAP3 SWAP2 POP POP JUMP INVALID LOG2 PUSH5 0x6970667358 0x22 SLT KECCAK256 0xE3 0xB2 0xCB 0x29 0xDC PUSH31 0x66B7705EF84A7AD543CC43A0C82714513F9BAF73F3676B80814E64736F6C63 NUMBER STOP ADDMOD SGT STOP CALLER LOG2 PUSH5 0x6970667358 0x22 SLT KECCAK256 SWAP15 SWAP3 0xB8 0x5D INVALID SWAP12 PUSH29 0x1A3DD182D07F6BC60CB08B4AA74633D65EA177B2A3929D12D364736F6C PUSH4 0x43000813 STOP CALLER "
				},
				"gasEstimates": {
					"creation": {
						"codeDepositCost": "195200",
						"executionCost": "238",
						"totalCost": "195438"
					},
					"external": {
						"createProduct(uint256)": "infinite"
					}
				},
				"methodIdentifiers": {
					"createProduct(uint256)": "2a422e92"
				}
			},
			"storageLayout": {
				"storage": [
					{
						"astId": 18,
						"contract": "factory.sol:Factory",
						"label": "numberToProduct",
						"offset": 0,
						"slot": "0",
						"type": "t_mapping(t_uint256,t_address)"
					},
					{
						"astId": 22,
						"contract": "factory.sol:Factory",
						"label": "productToNumber",
						"offset": 0,
						"slot": "1",
						"type": "t_mapping(t_address,t_uint256)"
					}
				],
				"types": {
					"t_address": {
						"encoding": "inplace",
						"label": "address",
						"numberOfBytes": "20"
					},
					"t_mapping(t_address,t_uint256)": {
						"encoding": "mapping",
						"key": "t_address",
						"label": "mapping(address => uint256)",
						"numberOfBytes": "32",
						"value": "t_uint256"
					},
					"t_mapping(t_uint256,t_address)": {
						"encoding": "mapping",
						"key": "t_uint256",
						"label": "mapping(uint256 => address)",
						"numberOfBytes": "32",
						"value": "t_address"
					},
					"t_uint256": {
						"encoding": "inplace",
						"label": "uint256",
						"numberOfBytes": "32"
					}
				}
			},
			"userdoc": {
				"kind": "user",
				"methods": {},
				"version": 1
			}
		}
	}
}